{
  "address": "0x25f47fEF4D6471a8b9Cb93197E1bdAa4a256EE23",
  "abi": [
    {
      "inputs": [
        {
          "internalType": "address",
          "name": "_uniswapFactory",
          "type": "address"
        },
        {
          "internalType": "address",
          "name": "_weth",
          "type": "address"
        },
        {
          "internalType": "uint256",
          "name": "_swapPercentage",
          "type": "uint256"
        }
      ],
      "stateMutability": "nonpayable",
      "type": "constructor"
    },
    {
      "inputs": [],
      "name": "AlreadyDeployed",
      "type": "error"
    },
    {
      "inputs": [],
      "name": "AlreadySet",
      "type": "error"
    },
    {
      "inputs": [
        {
          "internalType": "uint256",
          "name": "numerator",
          "type": "uint256"
        }
      ],
      "name": "InvalidNumerator",
      "type": "error"
    },
    {
      "inputs": [],
      "name": "ZeroAddress",
      "type": "error"
    },
    {
      "anonymous": false,
      "inputs": [
        {
          "indexed": false,
          "internalType": "address",
          "name": "feeReceiver",
          "type": "address"
        },
        {
          "indexed": false,
          "internalType": "uint256",
          "name": "feeNumerator",
          "type": "uint256"
        }
      ],
      "name": "FeeParametersSet",
      "type": "event"
    },
    {
      "anonymous": false,
      "inputs": [
        {
          "indexed": true,
          "internalType": "address",
          "name": "operator",
          "type": "address"
        },
        {
          "indexed": false,
          "internalType": "bool",
          "name": "enabled",
          "type": "bool"
        }
      ],
      "name": "OperatorSet",
      "type": "event"
    },
    {
      "anonymous": false,
      "inputs": [
        {
          "indexed": true,
          "internalType": "address",
          "name": "previousOwner",
          "type": "address"
        },
        {
          "indexed": true,
          "internalType": "address",
          "name": "newOwner",
          "type": "address"
        }
      ],
      "name": "OwnershipTransferStarted",
      "type": "event"
    },
    {
      "anonymous": false,
      "inputs": [
        {
          "indexed": true,
          "internalType": "address",
          "name": "previousOwner",
          "type": "address"
        },
        {
          "indexed": true,
          "internalType": "address",
          "name": "newOwner",
          "type": "address"
        }
      ],
      "name": "OwnershipTransferred",
      "type": "event"
    },
    {
      "anonymous": false,
      "inputs": [
        {
          "indexed": true,
          "internalType": "address",
          "name": "pool",
          "type": "address"
        },
        {
          "indexed": true,
          "internalType": "enum VaultType",
          "name": "vaultType",
          "type": "uint8"
        },
        {
          "indexed": true,
          "internalType": "address",
          "name": "vault",
          "type": "address"
        }
      ],
      "name": "VaultCreated",
      "type": "event"
    },
    {
      "anonymous": false,
      "inputs": [
        {
          "indexed": true,
          "internalType": "address",
          "name": "vault",
          "type": "address"
        },
        {
          "components": [
            {
              "internalType": "int24",
              "name": "tickSpread",
              "type": "int24"
            },
            {
              "internalType": "int24",
              "name": "tickOpen",
              "type": "int24"
            },
            {
              "internalType": "uint32",
              "name": "twapInterval",
              "type": "uint32"
            },
            {
              "internalType": "uint256",
              "name": "priceThreshold",
              "type": "uint256"
            }
          ],
          "indexed": false,
          "internalType": "struct VaultSpec",
          "name": "spec",
          "type": "tuple"
        }
      ],
      "name": "VaultSpecUpdated",
      "type": "event"
    },
    {
      "inputs": [],
      "name": "acceptOwnership",
      "outputs": [],
      "stateMutability": "nonpayable",
      "type": "function"
    },
    {
      "inputs": [
        {
          "internalType": "address",
          "name": "_pool",
          "type": "address"
        },
        {
          "internalType": "enum VaultType",
          "name": "_vaultType",
          "type": "uint8"
        },
        {
          "components": [
            {
              "internalType": "int24",
              "name": "tickSpread",
              "type": "int24"
            },
            {
              "internalType": "int24",
              "name": "tickOpen",
              "type": "int24"
            },
            {
              "internalType": "uint32",
              "name": "twapInterval",
              "type": "uint32"
            },
            {
              "internalType": "uint256",
              "name": "priceThreshold",
              "type": "uint256"
            }
          ],
          "internalType": "struct VaultSpec",
          "name": "_vaultSpec",
          "type": "tuple"
        }
      ],
      "name": "deployVault",
      "outputs": [
        {
          "internalType": "address",
          "name": "",
          "type": "address"
        }
      ],
      "stateMutability": "nonpayable",
      "type": "function"
    },
    {
      "inputs": [
        {
          "internalType": "address",
          "name": "",
          "type": "address"
        },
        {
          "internalType": "enum VaultType",
          "name": "",
          "type": "uint8"
        }
      ],
      "name": "deployedVaults",
      "outputs": [
        {
          "internalType": "address",
          "name": "",
          "type": "address"
        }
      ],
      "stateMutability": "view",
      "type": "function"
    },
    {
      "inputs": [],
      "name": "getAllVaults",
      "outputs": [
        {
          "internalType": "address[]",
          "name": "",
          "type": "address[]"
        }
      ],
      "stateMutability": "view",
      "type": "function"
    },
    {
      "inputs": [],
      "name": "getProtocolDetails",
      "outputs": [
        {
          "internalType": "address",
          "name": "_governer",
          "type": "address"
        },
        {
          "internalType": "address",
          "name": "_feeReceiver",
          "type": "address"
        },
        {
          "internalType": "uint256",
          "name": "_feeNumerator",
          "type": "uint256"
        }
      ],
      "stateMutability": "view",
      "type": "function"
    },
    {
      "inputs": [
        {
          "internalType": "address",
          "name": "_sender",
          "type": "address"
        }
      ],
      "name": "isAllowedToRescale",
      "outputs": [
        {
          "internalType": "bool",
          "name": "",
          "type": "bool"
        }
      ],
      "stateMutability": "view",
      "type": "function"
    },
    {
      "inputs": [],
      "name": "openDeploy",
      "outputs": [
        {
          "internalType": "bool",
          "name": "",
          "type": "bool"
        }
      ],
      "stateMutability": "view",
      "type": "function"
    },
    {
      "inputs": [],
      "name": "openRescale",
      "outputs": [
        {
          "internalType": "bool",
          "name": "",
          "type": "bool"
        }
      ],
      "stateMutability": "view",
      "type": "function"
    },
    {
      "inputs": [],
      "name": "owner",
      "outputs": [
        {
          "internalType": "address",
          "name": "",
          "type": "address"
        }
      ],
      "stateMutability": "view",
      "type": "function"
    },
    {
      "inputs": [],
      "name": "pendingOwner",
      "outputs": [
        {
          "internalType": "address",
          "name": "",
          "type": "address"
        }
      ],
      "stateMutability": "view",
      "type": "function"
    },
    {
      "inputs": [],
      "name": "renounceOwnership",
      "outputs": [],
      "stateMutability": "nonpayable",
      "type": "function"
    },
    {
      "inputs": [
        {
          "internalType": "address",
          "name": "_feeReceiver",
          "type": "address"
        },
        {
          "internalType": "uint256",
          "name": "_feeNumerator",
          "type": "uint256"
        }
      ],
      "name": "setFeeParameters",
      "outputs": [],
      "stateMutability": "nonpayable",
      "type": "function"
    },
    {
      "inputs": [
        {
          "internalType": "bool",
          "name": "_isOpenDeploy",
          "type": "bool"
        }
      ],
      "name": "setOpenDeploy",
      "outputs": [],
      "stateMutability": "nonpayable",
      "type": "function"
    },
    {
      "inputs": [
        {
          "internalType": "bool",
          "name": "_isOpenRescale",
          "type": "bool"
        }
      ],
      "name": "setOpenRescale",
      "outputs": [],
      "stateMutability": "nonpayable",
      "type": "function"
    },
    {
      "inputs": [
        {
          "internalType": "address",
          "name": "_address",
          "type": "address"
        },
        {
          "internalType": "bool",
          "name": "_enabled",
          "type": "bool"
        }
      ],
      "name": "setOperator",
      "outputs": [],
      "stateMutability": "nonpayable",
      "type": "function"
    },
    {
      "inputs": [
        {
          "internalType": "uint256",
          "name": "_newSwapPercentage",
          "type": "uint256"
        }
      ],
      "name": "setSwapPercentage",
      "outputs": [],
      "stateMutability": "nonpayable",
      "type": "function"
    },
    {
      "inputs": [
        {
          "internalType": "address",
          "name": "_vault",
          "type": "address"
        },
        {
          "components": [
            {
              "internalType": "int24",
              "name": "tickSpread",
              "type": "int24"
            },
            {
              "internalType": "int24",
              "name": "tickOpen",
              "type": "int24"
            },
            {
              "internalType": "uint32",
              "name": "twapInterval",
              "type": "uint32"
            },
            {
              "internalType": "uint256",
              "name": "priceThreshold",
              "type": "uint256"
            }
          ],
          "internalType": "struct VaultSpec",
          "name": "_vaultSpec",
          "type": "tuple"
        }
      ],
      "name": "setVaultSpec",
      "outputs": [],
      "stateMutability": "nonpayable",
      "type": "function"
    },
    {
      "inputs": [],
      "name": "swapPercentage",
      "outputs": [
        {
          "internalType": "uint256",
          "name": "",
          "type": "uint256"
        }
      ],
      "stateMutability": "view",
      "type": "function"
    },
    {
      "inputs": [
        {
          "internalType": "address",
          "name": "newOwner",
          "type": "address"
        }
      ],
      "name": "transferOwnership",
      "outputs": [],
      "stateMutability": "nonpayable",
      "type": "function"
    },
    {
      "inputs": [],
      "name": "uniswapFactory",
      "outputs": [
        {
          "internalType": "contract IUniswapV3Factory",
          "name": "",
          "type": "address"
        }
      ],
      "stateMutability": "view",
      "type": "function"
    },
    {
      "inputs": [],
      "name": "vaultMaster",
      "outputs": [
        {
          "internalType": "address",
          "name": "",
          "type": "address"
        }
      ],
      "stateMutability": "view",
      "type": "function"
    },
    {
      "inputs": [
        {
          "internalType": "address",
          "name": "",
          "type": "address"
        }
      ],
      "name": "vaultSpec",
      "outputs": [
        {
          "internalType": "int24",
          "name": "tickSpread",
          "type": "int24"
        },
        {
          "internalType": "int24",
          "name": "tickOpen",
          "type": "int24"
        },
        {
          "internalType": "uint32",
          "name": "twapInterval",
          "type": "uint32"
        },
        {
          "internalType": "uint256",
          "name": "priceThreshold",
          "type": "uint256"
        }
      ],
      "stateMutability": "view",
      "type": "function"
    },
    {
      "inputs": [],
      "name": "weth",
      "outputs": [
        {
          "internalType": "contract IWETH9",
          "name": "",
          "type": "address"
        }
      ],
      "stateMutability": "view",
      "type": "function"
    }
  ],
  "transactionHash": "0x7e6849bad1931fc94e56c797bafceaf8ea9e062a9911d02b8b712975665ab79c",
  "args": [
    "0x1F98431c8aD98523631AE4a59f267346ea31F984",
    "0x4200000000000000000000000000000000000006",
    "5000"
  ],
  "numDeployments": 1,
  "solcInputHash": "cceff2dd4603741a1e13960632bcd42e",
  "bytecode": "0x60e0346101a1576001600160401b0390601f620061f638819003918201601f19168301929190848411838510176101a65781606092849260409687528339810103126101a15761004e816101bc565b928261005c602084016101bc565b920151600180546001600160a01b03199081169091556000805491821633908117825586516001600160a01b039892969390928992909183167f8be0079c531659141344cd1fd0a4f28419497f9722a3daafe3b4186f6b6457e08980a3169081158015610197575b61018857506127108310156101705760a05285166080526005558251906151698083019182118383101761015c579082916200108d8339039082f09283156101505782931660c052338152600260205220600160ff1982541617905551610ebc9081620001d1823960805181610bee015260a051816108fe015260c05181818161043401526107a20152f35b509051903d90823e3d90fd5b634e487b7160e01b84526041600452602484fd5b85516357b517c160e01b815260048101849052602490fd5b63d92e233d60e01b8152600490fd5b50878316156100c4565b600080fd5b634e487b7160e01b600052604160045260246000fd5b51906001600160a01b03821682036101a15756fe60806040908082526004918236101561001757600080fd5b600092833560e01c9283631a4b0ac714610dae57508263378c552c14610ccf5782633c0ada4114610c6e5782633faee38114610c1d5782633fc8cef314610bd95782634b52a23314610bba578263558a729714610b3c578263662b0fe814610ae75782636c85733d14610a90578263715018a614610a2b57826379ba5097146109675782638080425b1461092d5782638bdb2afa146108e95782638da5cb5b146108c157826397331bf9146107d1578263974c52261461078d578263a32bb5a8146103c357508163a4fec5921461036e578163c40d02f51461034a578163de34024c14610223578163e30c3978146101fa578163f232070214610193575063f2fde38b1461012457600080fd5b346101905760203660031901126101905761013d610dd2565b610145610e57565b600180546001600160a01b0319166001600160a01b0392831690811790915582549091167f38d16b8cac22d99fc7c124b9cd0de2d3fa1faef420bfe791d8c362d765e227008380a380f35b80fd5b9050346101f65760203660031901126101f65760809181906001600160a01b036101bb610dd2565b16815260076020522090600182549201549063ffffffff8151938060020b85528060181c60020b602086015260301c16908301526060820152f35b5080fd5b9050346101f657816003193601126101f65760015490516001600160a01b039091168152602090f35b9050346101f65760a03660031901126101f65761023e610dd2565b9060803660231901126103455780519161025783610e25565b6024358060020b8103610345578352604435928360020b840361034557602081019384526064359163ffffffff938484168403610345577fc6d9d255f364aec425612abfdb8d27b1a0c2ad7ec63e8bcbe4ada9911e67d2cc94608094828501908152606085019360843585526102cb610e57565b60018060a01b031697888a526007602052838a209551958054825160181b65ffffff00000069ffffffff000000000000865160301b169262ffffff8b169069ffffffffffffffffffff1916179116171781556001865191015583519560020b86525160020b6020860152511690830152516060820152a280f35b600080fd5b9050346101f657816003193601126101f65760209060ff6003541690519015158152f35b9050346101f657806003193601126101f657610388610dd2565b60243560028110156103bf576001600160a01b03918216845260066020908152938390206103b69190610df7565b54169051908152f35b8380fd5b8390346101f65760c03660031901126101f6576103de610dd2565b9260249182359160028310156107895760803660431901126107895760ff60035460081c161561077c575b60018060a01b039384871692838752602097600689528661042c87868b20610df7565b541661076d577f00000000000000000000000000000000000000000000000000000000000000008451978a8901926bffffffffffffffffffffffff199060601b1683528760f81b60348a0152601589528589019067ffffffffffffffff938a83108584111761075b578288528a5190206e5af43d82803e903d91602b57fd5bf362ffffff948d763d602d80600a3d3981f3363d3d373d3d3d363d73000000878360881c1617905260781b178d52603760098df51698891561071b57505084516104f481610e25565b6044358060020b81036107175781526064358060020b8103610717578b82019081526084359063ffffffff928383168303610713577fc6d9d255f364aec425612abfdb8d27b1a0c2ad7ec63e8bcbe4ada9911e67d2cc936080938f8f93948f98958d81019384528d606082019660a435885261056e610e57565b8b81526007855220905196815465ffffff000000845160181b9169ffffffff000000000000885160301b16938b169069ffffffffffffffffffff191617911617178155600186519101558c519560020b86525160020b90850152511689830152516060820152a2863b1561070f57835190632001c7ed60e21b8252308383015285848301528660448301528882606481838c5af18015610705576106e1575b50508387526006885261062285848920610df7565b916bffffffffffffffffffffffff60a01b92878482541617905560085491680100000000000000008310156106d05760018301806008558310156106bf575050917f4f6d118257d623f94565937234ec14565cecf50f7eca239c7b951bf609860bbc91868096959460088a527ff3f7a9fe364faab93b216da50a3214154f22a0a2b415b23a84c8169e8b636ee30191825416179055519580a48152f35b634e487b7160e01b89526032905287fd5b634e487b7160e01b89526041905287fd5b81989298116106f457835295888061060d565b50634e487b7160e01b815260418752fd5b85513d8b823e3d90fd5b8780fd5b8c80fd5b8a80fd5b907f455243313136373a2063726561746532206661696c656400000000000000000060846064938e62461bcd60e51b855260448201526017858201520152fd5b634e487b7160e01b8c5260418652868cfd5b50825163a6ef0ba160e01b8152fd5b610784610e57565b610409565b8480fd5b8382346101f657816003193601126101f657517f00000000000000000000000000000000000000000000000000000000000000006001600160a01b03168152602090f35b908334610190578060031936011261019057815180916008549384835260208093018095600884527ff3f7a9fe364faab93b216da50a3214154f22a0a2b415b23a84c8169e8b636ee390845b868282106108a45750505050849003601f01601f191684019567ffffffffffffffff871185881017610891575085815282865292518583018190528594938501939290915b82811061087157505050500390f35b83516001600160a01b031685528695509381019392810192600101610862565b634e487b7160e01b835260419052602482fd5b83546001600160a01b03168552909301926001928301920161081d565b8382346101f657816003193601126101f657905490516001600160a01b039091168152602090f35b8382346101f657816003193601126101f657517f00000000000000000000000000000000000000000000000000000000000000006001600160a01b03168152602090f35b8390346101f657816003193601126101f65760609260018060a01b03809354169260035460101c1691549181519384526020840152820152f35b915034610a275782600319360112610a2757600154916001600160a01b039133838516036109d25750506001600160a01b031991821660015582543392811683178455167f8be0079c531659141344cd1fd0a4f28419497f9722a3daafe3b4186f6b6457e08380a380f35b906020608492519162461bcd60e51b8352820152602960248201527f4f776e61626c6532537465703a2063616c6c6572206973206e6f7420746865206044820152683732bb9037bbb732b960b91b6064820152fd5b8280fd5b8334610190578060031936011261019057610a44610e57565b600180546001600160a01b03199081169091558154908116825581906001600160a01b03167f8be0079c531659141344cd1fd0a4f28419497f9722a3daafe3b4186f6b6457e08280a380f35b8382346101f65760203660031901126101f65790602091610aaf610dd2565b9160ff60035416928315610ac8575b5050519015158152f35b6001600160a01b03168152600284528190205460ff1691508380610abe565b915034610a27576020366003190112610a2757610b02610de8565b91610b0b610e57565b600354921515918260ff8516151514610b2f57505060ff169060ff19161760035580f35b5163a741a04560e01b8152fd5b8382346101f657806003193601126101f657610b56610dd2565b602435908115158092036103bf577f1a594081ae893ab78e67d9b9e843547318164322d32c65369d78a96172d9dc8f91602091610b91610e57565b6001600160a01b031680865260028352848620805460ff191660ff84161790559351908152a280f35b8382346101f657816003193601126101f6576020906005549051908152f35b8382346101f657816003193601126101f657517f00000000000000000000000000000000000000000000000000000000000000006001600160a01b03168152602090f35b915034610a27576020366003190112610a2757610c38610de8565b91610c41610e57565b600354921515918260ff8560081c16151514610b2f57505061ff009060081b169061ff0019161760035580f35b90915034610a27576020366003190112610a2757803591610c8d610e57565b60055490838214610cc057612710821015610cab5750505060055580f35b516357b517c160e01b81529182015260249150fd5b5163a741a04560e01b81529050fd5b8382346101f657806003193601126101f657610ce9610dd2565b602435610cf4610e57565b6003546001600160a01b038381169390601083901c16841480610da4575b610d9457612710831015610d7d5762010000600160b01b031990911660109190911b62010000600160b01b031617600355938490558151908152602081019390935290917fb2ca4dfeb63371c80185b969346601ac57bfe39e8ad8e8739e1ba7c6fcdefab59190a180f35b84516357b517c160e01b8152808801849052602490fd5b845163a741a04560e01b81528790fd5b5082875414610d12565b8490346101f657816003193601126101f65760209060ff60035460081c1615158152f35b600435906001600160a01b038216820361034557565b60043590811515820361034557565b906002811015610e0f57600052602052604060002090565b634e487b7160e01b600052602160045260246000fd5b6080810190811067ffffffffffffffff821117610e4157604052565b634e487b7160e01b600052604160045260246000fd5b6000546001600160a01b03163303610e6b57565b606460405162461bcd60e51b815260206004820152602060248201527f4f776e61626c653a2063616c6c6572206973206e6f7420746865206f776e65726044820152fdfea164736f6c6343000813000a60808060405234620000c6576000549060ff8260081c1662000074575060ff8082161062000038575b60405161509d9081620000cc8239f35b60ff90811916176000557f7f26b83ff96e1f2b6a682f133852f6798a09c465da95921460cefb3847402498602060405160ff8152a13862000028565b62461bcd60e51b815260206004820152602760248201527f496e697469616c697a61626c653a20636f6e747261637420697320696e697469604482015266616c697a696e6760c81b6064820152608490fd5b600080fdfe6080806040526004361015610047575b50361561001b57600080fd5b60cd546001600160a01b0316330361002f57005b6040516304bb766b60e31b8152336004820152602490fd5b60003560e01c90816306fdde0314612c1b57508063095ea7b314612bf55780630dfe168114612bcc57806316f0115b14612ba357806318160ddd14612b8557806323b872dd14612ac75780632505c3d91461263d578063313ce567146126215780633644e515146125fe57806339509351146125ad5780634ac032be1461256a578063512253ad146125455780636e7ec39214611f7c57806370a0823114611f425780637ecebe0014611f0857806380071fb41461134457806391b6aabd1461090d57806395d89b4114610845578063a457c2d71461079e578063a9059cbb1461076d578063ac2dc56214610738578063aede67ea146106d9578063d0c93a7c146106b5578063d21220a71461068c578063d34879971461061c578063d505accf14610451578063dd62ed3e14610400578063ea2f4215146103d7578063f69e2046146102425763fa461e331461019e573861000f565b3461023d57606036600319011261023d576004356024356044356001600160401b03811161023d576101d4903690600401612d27565b505060d0546001600160a01b039290831633036102255760008113610210575b50600081136101ff57005b61020e91339060cf5416613762565b005b61021f90338460ce5416613762565b386101f4565b60405163250abb5160e11b8152336004820152602490fd5b600080fd5b3461023d57600036600319011261023d5761025b613967565b60cc54604051637919038160e11b81523060048201526001600160a01b03916080908290602490829086165afa9182156103925760009160009361039e575b5060d05460405163b30e439d60e01b815291166001600160a01b0316600482015263ffffffff82166024820152604481018390526020818060648101038173498f869CDFa59076c11Fed54212bCd30abaBe6D25af490811561039257600091610359575b501561032d576035541561031b57610314614b7c565b600160d155005b604051639bbe040560e01b8152600490fd5b604051631cbe501b60e11b815263ffffffff9190911660048201526024810191909152604490fd5b0390fd5b90506020813d821161038a575b8161037360209383612dd7565b8101031261023d5761038490613347565b836102fe565b3d9150610366565b6040513d6000823e3d90fd5b602093506103c491925060803d81116103d0575b6103bc8183612dd7565b810190613283565b9490939250905061029a565b503d6103b2565b3461023d57600036600319011261023d5760cc546040516001600160a01b039091168152602090f35b3461023d57604036600319011261023d57610419612cfb565b610421612d11565b9060018060a01b038091166000526034602052604060002091166000526020526020604060002054604051908152f35b3461023d5760e036600319011261023d5761046a612cfb565b610472612d11565b6044359060843560643560ff8216820361023d578042116105d75760018060a01b0390818616928360005260996020526040600020908154916001830190556040519260208401927f6e71edae12b1b97f4d1f60370fef10105fa2faae0126114a169c64845d6126c98452866040860152858816606086015288608086015260a085015260c084015260c0835260e08301918383106001600160401b038411176105c15761056d936105659360405251902061052c61320a565b9160405191602083019361190160f01b8552602284015260428301526042825261055582612dbc565b60c4359260a4359251902061317b565b919091613077565b160361057c5761020e92612f75565b60405162461bcd60e51b815260206004820152601e60248201527f45524332305065726d69743a20696e76616c6964207369676e617475726500006044820152606490fd5b634e487b7160e01b600052604160045260246000fd5b60405162461bcd60e51b815260206004820152601d60248201527f45524332305065726d69743a206578706972656420646561646c696e650000006044820152606490fd5b3461023d57606036600319011261023d576004356024356044356001600160401b03811161023d57610652903690600401612d27565b505060d0546001600160a01b039290831633036102255780610677575b50806101ff57005b61068690338460ce5416613762565b8261066f565b3461023d57600036600319011261023d5760cf546040516001600160a01b039091168152602090f35b3461023d57600036600319011261023d57602060d05460a81c60020b604051908152f35b3461023d57600036600319011261023d5760d05460a0906001600160801b0390610714906001600160a01b031661070e613942565b906142ec565b92604095949592919251958652602086015260408501526060840152166080820152f35b3461023d57600036600319011261023d576101035460408051600283810b825260189390931c90920b602083015290f35b0390f35b3461023d57604036600319011261023d57610793610789612cfb565b6024359033612e05565b602060405160018152f35b3461023d57604036600319011261023d576107b7612cfb565b60243590336000526034602052604060002060018060a01b038216600052602052604060002054918083106107f25761079392039033612f75565b60405162461bcd60e51b815260206004820152602560248201527f45524332303a2064656372656173656420616c6c6f77616e63652062656c6f77604482015264207a65726f60d81b6064820152608490fd5b3461023d57600036600319011261023d57604051600060375461086781612d54565b808452906001908181169081156108e6575060011461089d575b6107698461089181860382612dd7565b60405191829182612ccf565b6037600090815292506000805160206150718339815191525b8284106108ce57505050810160200161089182610881565b805460208587018101919091529093019281016108b6565b60ff191660208087019190915292151560051b850190920192506108919150839050610881565b3461023d57602036600319011261023d576004356001600160a01b038116810361023d57610939613967565b60cc54604051637919038160e11b808252306004830152608093929091908490829060249082906001600160a01b03165afa90811561039257600090600092611321575b5060d05460405163b30e439d60e01b81526001600160a01b03909116600482015263ffffffff821660248201526044810183905260208160648173498f869CDFa59076c11Fed54212bCd30abaBe6D25af4908115610392576000916112e7575b501561032d5750506109ed614711565b156112d55760cc54604051636c85733d60e01b815233600482015290602090829060249082906001600160a01b03165afa9081156103925760009161129b575b501561128357620f42406001600160a01b03831610156112625760d0546001600160a01b03166001600160801b03610a6c610a66613942565b836143dc565b5050161561125057610a7c613942565b90600080916001600160801b03610a9385836143dc565b505016806110d7575b5050610ad792507f8f50c68aa31577462ee7e15eb3417fa4442a7167ecb21ddba35eb88926d7268960408051838152846020820152a1614624565b60cc54604051634b52a23360e01b81526001600160a01b0390911690602081600481855afa9283156103925785916000946110a0575b5060246040518094819382523060048301525afa9384156103925760009461107e575b505060d05491610b65610b4a8460a81c60020b95866132c1565b9485610b5e6001600160a01b0387166133c5565b905061343c565b91610b6e614db1565b90610b9f610b7a614e1d565b94610b908187866001600160a01b038b16613a9c565b6001600160a01b0388166144a7565b610bb486610baf84879597614617565b6142d9565b610bc283610baf848a614617565b10958615611069575050610bde92610bd991614617565b613fb6565b905b604051633850c7bd60e01b815260e0816004816001600160a01b0389165afa90811561039257600091611044575b506001600160a01b0390811691811680830290911690828204148215171561100a57620f424090048315611020576001600160a01b0390811690910390811161100a57604092600060c492955b85519687958694630251596160e31b86523060048701526024860152604485015260018060a01b0316606484015260a060848401528160a484015260018060a01b03165af1801561039257610fdf575b50610cb4614db1565b610cbc614e1d565b9060d05460018060a01b0381169060a81c60020b9360006020604051610ce181612d8e565b8281520152604051633850c7bd60e01b815260e081600481865afa8015610392578690600092600091610fa2575b5092610d1b929361343c565b90858483610d2b81898489613a9c565b90610d3691876144a7565b8289610d448884868c613a9c565b93610d4f9083614617565b90610d59916142d9565b91610d64908b614617565b90610d6e916142d9565b1015610ef057610d8a91610d8591610d8f95614841565b6148cd565b6134b0565b60020b60208201525b610da685825160020b6134b0565b60020b81526020810194610dbe81875160020b6134b0565b60020b90818752825160020b918083129283610ee1575b83610ed3575b83610ebb575b5082610ea6575b505015610e8057927fabe4419e910132993e9d67dbbf0ef0dc3ee7844094248ae8f3aa2a6cc5c209689492610e5192610e7695516101039562ffffff8754915160181b65ffffff0000001692169065ffffffffffff191617178555610e4b613942565b906139d3565b50505460408051600283810b825260189390931c90920b602083015290918291820190565b0390a1600160d155005b518451604051636d566e8960e01b8152600292830b6004820152910b6024820152604490fd5b610eb0925061349e565b60020b158680610de8565b610ec8919350829061349e565b60020b159188610de1565b620d89e88213159350610ddb565b620d89e7198112159350610dd5565b9150506001600160a01b038611610f4e576001600160801b038660601b91168082061515910401905b6001600160a01b03168181111561023d57610f44918791610d8a9190036001600160a01b03166148cd565b60020b8152610d98565b6001600160801b0316610f618187614076565b908015610f8c57600160601b8709610f7a575b90610f19565b60001981101561023d57600101610f74565b634e487b7160e01b600052601260045260246000fd5b610d1b9350610fc9915060e03d60e011610fd8575b610fc18183612dd7565b810190613354565b509496939450610d0f92505050565b503d610fb7565b604090813d8311611003575b610ff58183612dd7565b8101031261023d5781610cab565b503d610feb565b634e487b7160e01b600052601160045260246000fd5b6001600160a01b039081169190910190811161100a57604092600060c49295610c5b565b61105d915060e03d60e011610fd857610fc18183612dd7565b50505050505086610c0e565b6110789450610bd99250614617565b90610be0565b611095929450803d106103d0576103bc8183612dd7565b505050918380610b30565b915092506020813d6020116110cf575b816110bd60209383612dd7565b8101031261023d578490519286610b0d565b3d91506110b0565b91509150825190602084019081516040519363a34123a760e01b855260020b600485015260020b602484015260448301526040826064816000875af193841561039257600092600095611214575b509060a46040925160020b915160020b916000845196879485936309e3d67b60e31b8552306004860152602485015260448401526001600160801b0360648401526001600160801b0360848401525af1918215610392576000906000936111b2575b50926001600160801b036111a36111aa9382610ad79716614617565b9316614617565b908680610a9c565b9250506040823d60401161120c575b816111ce60409383612dd7565b8101031261023d57610ad7926001600160801b036111a36111aa93826111ff60206111f8896143c8565b98016143c8565b9694975050935050611187565b3d91506111c1565b60409291955060a4935061123d90833d8511611249575b6112358183612dd7565b8101906139bd565b93909395919250611125565b503d61122b565b604051636180f03f60e11b8152600490fd5b60405163c6cfa6a760e01b81526001600160a01b0383166004820152602490fd5b60405163acd9d2bb60e01b8152336004820152602490fd5b90506020813d6020116112cd575b816112b660209383612dd7565b8101031261023d576112c790613347565b84610a2d565b3d91506112a9565b60405163ea57e24d60e01b8152600490fd5b90506020813d602011611319575b8161130260209383612dd7565b8101031261023d5761131390613347565b866109dd565b3d91506112f5565b905061133a9150843d86116103d0576103bc8183612dd7565b925090508561097d565b3461023d57606036600319011261023d5761135d612cfb565b611365612d11565b6002604435101561023d576000549160ff8360081c161592838094611efb575b8015611ee4575b15611e885760ff19811660011760005583611e76575b5060ff60005460081c166113b5816132d8565b60cc80546001600160a01b0384166001600160a01b03199182168117909255604051633fc8cef360e01b81529091602090829060049082905afa90811561039257600091611e34575b5060cd805483166001600160a01b0392831617905560d08054808416928716928317909155604051630dfe168160e01b81529591602090879060049082905afa95861561039257600096611df8575b5060018060a01b0386168360ce54161760ce556040519263d21220a760e01b845260208460048160018060a01b0387165afa93841561039257600094611dbc575b5060018060a01b0384169060cf54161760cf556040516334324e9f60e21b815260208160048160018060a01b0387165afa90811561039257600091611d82575b5060a81b62ffffff60a81b166001600160c01b03199091166001600160a01b0383169081179190911760443560a01b60ff60a01b161760d05560405163ddca3f4360e01b81529490602090869060049082905afa94851561039257600095611d41575b506040516345ed957d60e11b815290602090829060049082906001600160a01b03165afa90811561039257600091611cfc575b50604051630b4c774160e11b81526001600160a01b038781166004830152848116602483015262ffffff8716604483015290929160209184916064918391165afa91821561039257600092611cc0575b506001600160a01b03908116911603611caf576040516395d89b4160e01b8152926000846004816001600160a01b0389165afa93841561039257600094611c92575b506040516395d89b4160e01b8152946000866004816001600160a01b0387165afa94851561039257600496600096611c6a575b50906116f6603360009361164162ffffff87166135fa565b6001604435148614611c5c576116556135d3565b905b6040519a8b9369026b2ba30bb34b9b7b9160b51b6020860152611684815180926020602a89019101612cac565b8401602f60f81b602a8201526116a4825180936020602b85019101612cac565b01602d60f81b602b8201526116c3825180936020602c85019101612cac565b01660102b30bab63a160cd1b602c8201526116e78251809360208785019101612cac565b01036013810189520187612dd7565b6040516395d89b4160e01b815296879182906001600160a01b03165afa91821561039257600495600093611c3d575b506040516395d89b4160e01b81529560009187919082906001600160a01b03165afa94851561039257600095611c00575b506027611824939261176f62ffffff61181694166135fa565b604435600103611bf2576117816135d3565b905b604051988993634d56522d60e01b60208601526117aa815180926020602489019101612cac565b8401602f60f81b60248201526117ca825180936020602585019101612cac565b01602d60f81b60258201526117e9825180936020602685019101612cac565b01602d60f81b60268201526118078251809360208785019101612cac565b01036007810187520185612dd7565b61181f816132d8565b6132d8565b8051926001600160401b0384116105c157611840603654612d54565b601f8111611b89575b50602093601f8111600114611b16578091929394600091611b0b575b508160011b916000199060031b1c1916176036555b82516001600160401b0381116105c157611895603754612d54565b601f8111611a9e575b506020601f8211600114611a2c5781929394600092611a21575b50508160011b916000199060031b1c1916176037555b6119276000549260ff8460081c16906118e6826132d8565b604051906118f382612d8e565b600182526020820190603160f81b825261190c846132d8565b60208151910120915190209060655560665561181f816132d8565b600160d15560cc54604051637919038160e11b815230600482015290608090829060249082906001600160a01b03165afa80156103925761199991600091611a00575b5060d0546119936119836001600160a01b0383166133c5565b92905060a81c60020b92836132c1565b9061343c565b80516101039162ffffff6020845492015160181b65ffffff0000001692169065ffffffffffff1916171790556119cb57005b61ff0019166000557f7f26b83ff96e1f2b6a682f133852f6798a09c465da95921460cefb3847402498602060405160018152a1005b611a18915060803d81116103d0576103bc8183612dd7565b5050508461196a565b0151905084806118b8565b601f1982169060376000526000805160206150718339815191529160005b818110611a8657509583600195969710611a6d575b505050811b016037556118ce565b015160001960f88460031b161c19169055848080611a5f565b9192602060018192868b015181550194019201611a4a565b6037600052601f820160051c600080516020615071833981519152019060208310611af5575b601f0160051c60008051602061507183398151915201905b818110611ae9575061189e565b60008155600101611adc565b6000805160206150718339815191529150611ac4565b905083015185611865565b603660005260008051602061503183398151915260005b601f1983168110611b71575060019293949582601f19811610611b58575b5050811b0160365561187a565b85015160001960f88460031b161c191690558580611b4b565b84870151825560209687019660019092019101611b2d565b6036600052601f850160051c6000805160206150318339815191520160208610611bdd575b601f820160051c600080516020615031833981519152018110611bd15750611849565b60008155600101611bae565b50600080516020615031833981519152611bae565b611bfa6135b6565b90611783565b611816919550611824939261176f62ffffff611c306027943d806000833e611c288183612dd7565b810190613558565b9894505050929350611756565b6000919350611c55903d8084833e611c288183612dd7565b9290611725565b611c646135b6565b90611657565b6000929196506033611c886116f6923d8087833e611c288183612dd7565b9792935050611629565b611ca89194503d806000833e611c288183612dd7565b92866115f6565b60405162820f3560e61b8152600490fd5b9091506020813d602011611cf4575b81611cdc60209383612dd7565b8101031261023d57611ced90613529565b90876115b4565b3d9150611ccf565b90506020813d602011611d39575b81611d1760209383612dd7565b8101031261023d5751906001600160a01b038216820361023d57906020611564565b3d9150611d0a565b9094506020813d602011611d7a575b81611d5d60209383612dd7565b8101031261023d575162ffffff8116810361023d57936020611531565b3d9150611d50565b90506020813d602011611db4575b81611d9d60209383612dd7565b8101031261023d57611dae90613275565b886114ce565b3d9150611d90565b9093506020813d602011611df0575b81611dd860209383612dd7565b8101031261023d57611de990613529565b928861148e565b3d9150611dcb565b9095506020813d602011611e2c575b81611e1460209383612dd7565b8101031261023d57611e2590613529565b948761144d565b3d9150611e07565b90506020813d602011611e6e575b81611e4f60209383612dd7565b8101031261023d57516001600160a01b038116810361023d57866113fe565b3d9150611e42565b61ffff191661010117600055836113a2565b60405162461bcd60e51b815260206004820152602e60248201527f496e697469616c697a61626c653a20636f6e747261637420697320616c72656160448201526d191e481a5b9a5d1a585b1a5e995960921b6064820152608490fd5b50303b15801561138c5750600160ff82161461138c565b50600160ff821610611385565b3461023d57602036600319011261023d576001600160a01b03611f29612cfb565b1660005260996020526020604060002054604051908152f35b3461023d57602036600319011261023d576001600160a01b03611f63612cfb565b1660005260336020526020604060002054604051908152f35b3461023d57608036600319011261023d5760243515156024350361023d57611fa2613967565b60cc54604051637919038160e11b815230600482015290608090829060249082906001600160a01b03165afa90811561039257600090600092612521575b5060d05460405163b30e439d60e01b81526001600160a01b03909116600482015263ffffffff821660248201526044810183905260208160648173498f869CDFa59076c11Fed54212bCd30abaBe6D25af4908115610392576000916124e7575b501561032d57600435156124ce5760355480600435116124ce5760d0546001600160a01b031661206e613942565b60009160009160009060009261208482826143dc565b505090600019600435146000146124b1576001600160801b03808316925b16612300575b505050612121936120ee61210b93612111937f8f50c68aa31577462ee7e15eb3417fa4442a7167ecb21ddba35eb88926d7268960408051838152846020820152a1614624565b61210b8660043561210684612101614db1565b614617565b614179565b90612df8565b9360043561210684612101614e1d565b9033156122b1573360005260336020526040600020549160043583106122615760409233600052603360205260043590038360002055600435603554036035556000835160043581527fddf252ad1be2c89b69c2b068fc378daa952ba7f163c4a11628f55a4df523b3ef60203392a36121a8602435833360018060a01b0360ce5416614e5b565b6121c0602435823360018060a01b0360cf5416614e5b565b82516004358152602081018390526040810182905233907f75e161b3e824b114fc1a33274bd7091918dd4e639cede50b78b15a4eea956a2190606090a2603554612216575b600160d15582519182526020820152f35b60d054600080516020615051833981519152908490612251906001600160a01b0316612240614db1565b612248614e1d565b91610e4b613942565b82519182526020820152a1612205565b60405162461bcd60e51b815260206004820152602260248201527f45524332303a206275726e20616d6f756e7420657863656564732062616c616e604482015261636560f01b6064820152608490fd5b60405162461bcd60e51b815260206004820152602160248201527f45524332303a206275726e2066726f6d20746865207a65726f206164647265736044820152607360f81b6064820152608490fd5b935093508094506001600160801b039150519260208501516040519463a34123a760e01b865260020b600486015260020b60248501521660448301526040826064816000855af180156103925760009260009161248c575b508092809460443582108015612481575b61246f578060a460206040935160020b92015160020b916000845197889485936309e3d67b60e31b8552306004860152602485015260448401526001600160801b0360648401526001600160801b0360848401525af192831561039257600090600094612404575b5061210b936123f8612111946001600160801b036111a36121219a96826120ee9716614617565b909350938296506120a8565b93505090936040833d604011612467575b8161242260409383612dd7565b8101031261023d576120ee836123f8612121976001600160801b036111a3612111978261245660206111f861210b9d6143c8565b9a5050969a505050945050906123d1565b3d9150612415565b60405163c749862160e01b8152600490fd5b506064358310612369565b90506124a891925060403d604011611249576112358183612dd7565b91909185612358565b6001600160801b036124c889600435838616614179565b926120a2565b602460405163d1ff24fd60e01b81526004356004820152fd5b90506020813d602011612519575b8161250260209383612dd7565b8101031261023d5761251390613347565b83612040565b3d91506124f5565b905061253b915060803d81116103d0576103bc8183612dd7565b9250905082611fe0565b3461023d57600036600319011261023d576020612560614711565b6040519015158152f35b3461023d57600036600319011261023d5760ff60d05460a01c166040516002821015612597576020918152f35b634e487b7160e01b600052602160045260246000fd5b3461023d57604036600319011261023d576107936125c9612cfb565b336000526034602052604060002060018060a01b0382166000526020526125f7602435604060002054612df8565b9033612f75565b3461023d57600036600319011261023d57602061261961320a565b604051908152f35b3461023d57600036600319011261023d57602060405160128152f35b608036600319011261023d57602435600435612657613967565b60cc54604051637919038160e11b81523060048201526001600160a01b0392916080908290602490829087165afa90811561039257600090600092612aa3575b5060d05460405163b30e439d60e01b81529085166001600160a01b0316600482015263ffffffff821660248201526044810183905260208160648173498f869CDFa59076c11Fed54212bCd30abaBe6D25af490811561039257600091612a69575b501561032d5750508015801590612a60575b15612a4e5760355490811515809281612a41575b61275c8560d05416612767612731614db1565b61275c61273c614e1d565b9161276161275161274b613942565b876142ec565b509492999199612df8565b612df8565b95612df8565b93612a14575b60e060049160405192838092633850c7bd851b82525afa90811561039257876127a56127b0936127ab936000916129ee575b50613b9a565b16614217565b613f57565b6ec097ce7bc90715b34b9f1000000000916127d6836127cf84896142d9565b048a612df8565b966129b8575b505050505081926127f5828260ce541630903390614f36565b6128058530338460cf5416614f36565b60d05416612811613942565b6001600160801b0361282582888686613a9c565b169182612914575b50505033156128cf576020937f91ede45f04a37a7c170f5c1207df3b6bc748dc1e04ad5e917a241d0f52feada39161286784603554612df8565b6035553360005260338652604060002084815401905560405184815260007fddf252ad1be2c89b69c2b068fc378daa952ba7f163c4a11628f55a4df523b3ef883393a36040805194855260208501919091528301523391606090a2600160d155604051908152f35b60405162461bcd60e51b815260206004820152601f60248201527f45524332303a206d696e7420746f20746865207a65726f2061646472657373006044820152606490fd5b60c48260006020604095519201519385519687958694633c8a7d8d60e01b865230600487015260020b602486015260020b6044850152606484015260a060848401528160a48401525af190811561039257600090600092612996575b506044351190811561298a575b5061246f5784808061282d565b9050606435118561297d565b90506129b1915060403d604011611249576112358183612dd7565b9086612970565b926129e3959694926129d06129d7936129dd966142d9565b04946142d9565b92612df8565b906135f0565b9084808080806127dc565b612a07915060e03d60e011610fd857610fc18183612dd7565b505050505090508c61279f565b8115801590612a38575b61276d57634e487b7160e01b600052600160045260246000fd5b50831515612a1e565b612a49614b7c565b61271e565b604051635972996f60e11b8152600490fd5b5082151561270a565b90506020813d602011612a9b575b81612a8460209383612dd7565b8101031261023d57612a9590613347565b866126f8565b3d9150612a77565b9050612abd915060803d81116103d0576103bc8183612dd7565b9250905085612697565b3461023d57606036600319011261023d57612ae0612cfb565b612ae8612d11565b6044359060018060a01b0383166000526034602052604060002033600052602052604060002054926000198403612b24575b6107939350612e05565b828410612b4057612b3b8361079395033383612f75565b612b1a565b60405162461bcd60e51b815260206004820152601d60248201527f45524332303a20696e73756666696369656e7420616c6c6f77616e63650000006044820152606490fd5b3461023d57600036600319011261023d576020603554604051908152f35b3461023d57600036600319011261023d5760d0546040516001600160a01b039091168152602090f35b3461023d57600036600319011261023d5760ce546040516001600160a01b039091168152602090f35b3461023d57604036600319011261023d57610793612c11612cfb565b6024359033612f75565b3461023d57600036600319011261023d576000603654612c3a81612d54565b808452906001908181169081156108e65750600114612c63576107698461089181860382612dd7565b6036600090815292506000805160206150318339815191525b828410612c9457505050810160200161089182610881565b80546020858701810191909152909301928101612c7c565b60005b838110612cbf5750506000910152565b8181015183820152602001612caf565b60409160208252612cef8151809281602086015260208686019101612cac565b601f01601f1916010190565b600435906001600160a01b038216820361023d57565b602435906001600160a01b038216820361023d57565b9181601f8401121561023d578235916001600160401b03831161023d576020838186019501011161023d57565b90600182811c92168015612d84575b6020831014612d6e57565b634e487b7160e01b600052602260045260246000fd5b91607f1691612d63565b604081019081106001600160401b038211176105c157604052565b6001600160401b0381116105c157604052565b608081019081106001600160401b038211176105c157604052565b90601f801991011681019081106001600160401b038211176105c157604052565b9190820180921161100a57565b6001600160a01b03908116918215612f225716918215612ed15760008281526033602052604081205491808310612e7d57604082827fddf252ad1be2c89b69c2b068fc378daa952ba7f163c4a11628f55a4df523b3ef95876020965260338652038282205586815220818154019055604051908152a3565b60405162461bcd60e51b815260206004820152602660248201527f45524332303a207472616e7366657220616d6f756e7420657863656564732062604482015265616c616e636560d01b6064820152608490fd5b60405162461bcd60e51b815260206004820152602360248201527f45524332303a207472616e7366657220746f20746865207a65726f206164647260448201526265737360e81b6064820152608490fd5b60405162461bcd60e51b815260206004820152602560248201527f45524332303a207472616e736665722066726f6d20746865207a65726f206164604482015264647265737360d81b6064820152608490fd5b6001600160a01b039081169182156130265716918215612fd65760207f8c5be1e5ebec7d5bd14f71427d1e84f3dd0314c0f7b2291e5b200ac8c7c3b925918360005260348252604060002085600052825280604060002055604051908152a3565b60405162461bcd60e51b815260206004820152602260248201527f45524332303a20617070726f766520746f20746865207a65726f206164647265604482015261737360f01b6064820152608490fd5b60405162461bcd60e51b8152602060048201526024808201527f45524332303a20617070726f76652066726f6d20746865207a65726f206164646044820152637265737360e01b6064820152608490fd5b600581101561259757806130885750565b600181036130d55760405162461bcd60e51b815260206004820152601860248201527f45434453413a20696e76616c6964207369676e617475726500000000000000006044820152606490fd5b600281036131225760405162461bcd60e51b815260206004820152601f60248201527f45434453413a20696e76616c6964207369676e6174757265206c656e677468006044820152606490fd5b60031461312b57565b60405162461bcd60e51b815260206004820152602260248201527f45434453413a20696e76616c6964207369676e6174757265202773272076616c604482015261756560f01b6064820152608490fd5b9291907f7fffffffffffffffffffffffffffffff5d576e7357a4501ddfe92f46681b20a083116131fe5791608094939160ff602094604051948552168484015260408301526060820152600093849182805260015afa156131f15781516001600160a01b038116156131eb579190565b50600190565b50604051903d90823e3d90fd5b50505050600090600390565b6065546066546040519060208201927f8b73c3c69bb8fe3d512ecc4cf759cc79239f7b179b0ffacaa9a75d522b39400f8452604083015260608201524660808201523060a082015260a0815260c081018181106001600160401b038211176105c15760405251902090565b51908160020b820361023d57565b919082608091031261023d5761329882613275565b916132a560208201613275565b91604082015163ffffffff8116810361023d5760609092015190565b9060020b9060020b02908160020b91820361100a57565b156132df57565b60405162461bcd60e51b815260206004820152602b60248201527f496e697469616c697a61626c653a20636f6e7472616374206973206e6f74206960448201526a6e697469616c697a696e6760a81b6064820152608490fd5b519061ffff8216820361023d57565b5190811515820361023d57565b908160e091031261023d5780516001600160a01b038116810361023d579161337e60208301613275565b9161338b60408201613338565b9161339860608301613338565b916133a560808201613338565b9160a082015160ff8116810361023d5760c06133c2919301613347565b90565b604051633850c7bd60e01b81529060e090829060049082906001600160a01b03165afa80156103925760009182916133fc57509091565b9050613416915060e03d8111610fd857610fc18183612dd7565b50505050509091565b600291820b910b0390627fffff198212627fffff83131761100a57565b9161345c91926000602060405161345281612d8e565b82815201526134b0565b613466828261341f565b9160020b9060020b01627fffff198112627fffff82131761100a576040519161348e83612d8e565b60020b825260020b602082015290565b9060020b908115610f8c5760020b0790565b908160020b8160020b928315610f8c57627fffff199360001991908386148184141661100a5760008591850594129182613513575b50506134f657506133c292506132c1565b9060020b0191627fffff83139083121761100a576133c2916132c1565b61351d925061349e565b60020b151583386134e5565b51906001600160a01b038216820361023d57565b6001600160401b0381116105c157601f01601f191660200190565b60208183031261023d578051906001600160401b03821161023d570181601f8201121561023d57805161358a8161353d565b926135986040519485612dd7565b8184526020828401011161023d576133c29160208085019101612cac565b604051906135c382612d8e565b60018252604160f81b6020830152565b604051906135e082612d8e565b60018252602160f91b6020830152565b8115610f8c570490565b806000917a184f03e93ff9f4daa797ed6e38ed64bf6a1f01000000000000000080821015613754575b506d04ee2d6d415b85acef810000000080831015613745575b50662386f26fc1000080831015613736575b506305f5e10080831015613727575b5061271080831015613718575b506064821015613708575b600a809210156136fe575b600190816021818601956136938761353d565b966136a16040519889612dd7565b8088526136b0601f199161353d565b01366020890137860101905b6136c8575b5050505090565b600019019083906f181899199a1a9b1b9c1cb0b131b232b360811b8282061a8353049182156136f9579190826136bc565b6136c1565b9160010191613680565b9190606460029104910191613675565b6004919392049101913861366a565b6008919392049101913861365d565b6010919392049101913861364e565b6020919392049101913861363c565b604093508104915038613623565b60405163a9059cbb60e01b60208201526001600160a01b0390921660248301526044808301939093529181526137a09161379b82612dbc565b6137a2565b565b604051613800916001600160a01b03166137bb82612d8e565b6000806020958685527f5361666545524332303a206c6f772d6c6576656c2063616c6c206661696c656487860152868151910182855af16137fa613881565b916138b1565b80518061380c57505050565b8183918101031261023d57816138229101613347565b1561382a5750565b6084906040519062461bcd60e51b82526004820152602a60248201527f5361666545524332303a204552433230206f7065726174696f6e20646964206e6044820152691bdd081cdd58d8d9595960b21b6064820152fd5b3d156138ac573d906138928261353d565b916138a06040519384612dd7565b82523d6000602084013e565b606090565b9192901561391357508151156138c5575090565b3b156138ce5790565b60405162461bcd60e51b815260206004820152601d60248201527f416464726573733a2063616c6c20746f206e6f6e2d636f6e74726163740000006044820152606490fd5b8251909150156139265750805190602001fd5b60405162461bcd60e51b81529081906103559060048301612ccf565b6040519061394f82612d8e565b816020610103548060020b835260181c60020b910152565b600260d1541461397857600260d155565b60405162461bcd60e51b815260206004820152601f60248201527f5265656e7472616e637947756172643a207265656e7472616e742063616c6c006044820152606490fd5b919082604091031261023d576020825192015190565b939192906000946001600160801b036139f183600095869885613a9c565b1691826139ff575b50505050565b60c49192949650836040949650602082519201519385519687958694633c8a7d8d60e01b865230600487015260020b602486015260020b6044850152606484015260a060848401528160a484015260018060a01b03165af1908115613a91578291613a71575b509091388080806139f9565b9050613a8b915060403d8111611249576112358183612dd7565b38613a65565b6040513d84823e3d90fd5b604051633850c7bd60e01b81526001600160a01b039492939160e0908290600490829089165afa90811561039257600091613b76575b50613af06020613ae5855160020b613b9a565b94015160020b613b9a565b9294838682821681841611613b6a575b5050818116908681168211613b1c57505050506133c292613f0b565b8492949593951611600014613b5e578291613b3b91613b419594613f0b565b936141ee565b6001600160801b038181169083161015613b59575090565b905090565b9150506133c2926141ee565b90965093503880613b00565b613b8e915060e03d8111610fd857610fc18183612dd7565b50505050505038613ad2565b60020b6000811215613f055780600003905b620d89e88211613ef3576001821615613ee1576001600160881b036ffffcb933bd6fad37aa2d162d1a5940015b169160028116613ec5575b60048116613ea9575b60088116613e8d575b60108116613e71575b60208116613e55575b60408116613e39575b608090818116613e1e575b6101008116613e03575b6102008116613de8575b6104008116613dcd575b6108008116613db2575b6110008116613d97575b6120008116613d7c575b6140008116613d61575b6180008116613d46575b620100008116613d2b575b620200008116613d11575b620400008116613cf7575b6208000016613cdc575b50600012613ccd575b63ffffffff8116613cc5576000905b60201c60ff91909116016001600160a01b031690565b600190613caf565b8015610f8c5760001904613ca0565b6b048a170391f7dc42444e8fa26000929302901c9190613c97565b6d2216e584f5fa1ea926041bedfe98909302811c92613c8d565b926e5d6af8dedb81196699c329225ee60402811c92613c82565b926f09aa508b5b7a84e1c677de54f3e99bc902811c92613c77565b926f31be135f97d08fd981231505542fcfa602811c92613c6c565b926f70d869a156d2a1b890bb3df62baf32f702811c92613c62565b926fa9f746462d870fdf8a65dc1f90e061e502811c92613c58565b926fd097f3bdfd2022b8845ad8f792aa582502811c92613c4e565b926fe7159475a2c29b7443b29c7fa6e889d902811c92613c44565b926ff3392b0822b70005940c7a398e4b70f302811c92613c3a565b926ff987a7253ac413176f2b074cf7815e5402811c92613c30565b926ffcbe86c7900a88aedcffc83b479aa3a402811c92613c26565b926ffe5dee046a99a2a811c461f1969c305302811c92613c1c565b916fff2ea16466c96a3843ec78b326b528610260801c91613c11565b916fff973b41fa98c081472e6896dfb254c00260801c91613c08565b916fffcb9843d60f6159c9db58835c9266440260801c91613bff565b916fffe5caca7e10e4e61c3624eaa0941cd00260801c91613bf6565b916ffff2e50f5f656932ef12357cf3c7fdcc0260801c91613bed565b916ffff97272373d413259a46990580e213a0260801c91613be4565b6001600160881b03600160801b613bd9565b6040516315e4079d60e11b8152600490fd5b80613bac565b613f3d9291906001600160a01b039081831682821611613f51575b613f3482841683831661402b565b92031691614179565b6001600160801b03811690810361023d5790565b91613f26565b6ec097ce7bc90715b34b9f1000000000906000198282099082810292838084109303918383039360009314613fab57600160c01b9284841115613fa857500990828211900360401b910360c01c1790565b80fd5b505090505060c01c90565b9091906000198382098382029182808310920394828603926000961461401e57612710918383111561401a577fbc01a36e2eb1c432ca57a786c226809d495182a9930be0ded288ce703afb7e919596500990828211900360fc1b910360041c170290565b8680fd5b5050506127109192500490565b600019828209908281029283808410930391838303936000931461406b57600160601b9284841115613fa857500990828211900360a01b910360601c1790565b505090505060601c90565b90600160601b90600019828409928060601b928380861095039480860395146140f2578483111561023d5782910981806000031680920460028082600302188083028203028083028203028083028203028083028203028083028203028092029003029360018380600003040190848311900302920304170290565b50508092501561023d570490565b9060009060001982840992831561416d578382111561416957828291098180840316809204600280826003021880830282030280830282030280830282030280830282030280830282030280920290030293600183808603040190821515900302920304170290565b8280fd5b5090915015613fa85790565b9160001982840992828102928380861095039480860395146140f2578483111561023d5782910981806000031680920460028082600302188083028203028083028203028083028203028083028203028083028203028092029003029360018380600003040190848311900302920304170290565b613f3d92916001600160a01b03919082811683831611614211575b031690614076565b90614209565b60009080156142d55780806001146142cd576002146142c5576001918261013383101683600b841016176142b55760028392935b8082116142785750508260001904821161426457500290565b634e487b7160e01b81526011600452602490fd5b9093806000190481116142a157818516614298575b800293811c9061424b565b8093029261428d565b634e487b7160e01b83526011600452602483fd5b929150600283910a926142645750565b509060049150565b505050600190565b5090565b8181029291811591840414171561100a57565b9190600092600080938193829361430382826143dc565b5050906001600160801b039182811615159586614350575b509461432657505050565b94509450945094508261434561433c86856143dc565b979190956144a7565b949095169216929394565b845160208601516040805163a34123a760e01b8152600293840b60048201529190920b602482015260448101839052919082606481846001600160a01b0389165af19081156143bc57501561431b576143b69060403d8111611249576112358183612dd7565b5061431b565b604051903d90823e3d90fd5b51906001600160801b038216820361023d57565b9060a090602081519101516040519060208201923060601b845260e81b603483015260e81b6037820152601a815261441381612d8e565b51902060246040518094819363514ea4bf60e01b83526004830152600180861b03165afa9081156103925760009182918391614450575b50909192565b9291505060a0823d821161449f575b8161446c60a09383612dd7565b81010312613fa8575061447e816143c8565b614496608061448f606085016143c8565b93016143c8565b9091903861444a565b3d915061445f565b604051633850c7bd60e01b81529293926001600160a01b039160e0908290600490829086165afa90811561039257600091614573575b506144fb60206144f0875160020b613b9a565b96015160020b613b9a565b908591809360009160009882821683821611614568575b50508281169084811682116145345750505050906145309291614597565b9190565b9091929480949850161160001461455c575090614556836133c2949383614597565b946145e5565b946133c29392506145e5565b955093503880614512565b61458b915060e03d8111610fd857610fc18183612dd7565b505050505050386144dd565b6133c29290916001600160a01b0391828216838516116145dd575b6145d591838116919085900384169060601b600160601b600160e01b0316614179565b9116906135f0565b9092906145b2565b6133c292916001600160801b03916001600160a01b039182811683831611614611575b0316911661402b565b90614608565b9190820391821161100a57565b60cc54604051638080425b60e01b81526001600160a01b03939290916060908390600490829088165afa9081156103925760009283926146c2575b508161466d575b5050505050565b806146a5575b5082614680575b80614666565b6146956127109161469c9560cf5416946142d9565b0491613762565b3880808061467a565b6146bc9083612710614695858960ce5416946142d9565b38614673565b929091506060833d8211614709575b816146de60609383612dd7565b81010312613fa857506146f082613529565b5060406146ff60208401613529565b920151903861465f565b3d91506146d1565b60d0546024906001600160a01b0390608061472d8383166133c5565b60cc54604051637919038160e11b81523060048201529691958793508391165afa928315610392576000936147f8575b506101035460029281840b81850b8181129081156147e9575b506147de578161479461478f61479f9461478f9461341f565b61481c565b9360181c860b61341f565b9160a81c830b906147b082866132c1565b840b90840b129384156147c4575050505090565b6147d0929394506132c1565b820b910b12388080806136c1565b505050505050600190565b90508360181c860b1238614776565b61481191935060803d81116103d0576103bc8183612dd7565b50509050913861475d565b600281900b600080821261482f57505090565b909150627fffff198214614264570390565b9082156148c7576001600160a01b039182168381029360609290921b600160601b600160e01b031691819061487690866135f0565b14806148be575b1561023d5783820391614891838383614179565b948114610f8c57096148aa575b811690810361023d5790565b9060001981101561023d576001019061489e565b5083821161487d565b50905090565b6001600160a01b03818116916401000276a383101580614b5f575b15614b4d57640100000000600160c01b039060201b16806001600160801b03811160071b9181831c926001600160401b03841160061b93841c9363ffffffff851160051b94851c9461ffff861160041b95861c60ff9687821160031b91821c92600f841160021b93841c94600160038711811b96871c119617171717171717916080831015600014614b415750607e1982011c5b8002607f928392828493841c81841c1c800280851c81851c1c800280861c81861c1c800280871c81871c1c80029081881c82881c1c80029283891c84891c1c800294858a1c868a1c1c800296878b1c888b1c1c800298898c1c8a8c1c1c80029a8b8d1c8c821c1c8002809d1c8d821c1c8002809e81901c90821c1c80029e8f80911c911c1c800260cd1c6604000000000000169d60cc1c6608000000000000169c60cb1c6610000000000000169b60ca1c6620000000000000169a60c91c6640000000000000169960c81c6680000000000000169860c71c670100000000000000169760c61c670200000000000000169660c51c670400000000000000169560c41c670800000000000000169460c31c671000000000000000169360c21c672000000000000000169260c11c674000000000000000169160c01c6780000000000000001690607f190160401b1717171717171717171717171717693627a301d71055774c8502906f028f6481ab7f045a5af012a19d003aa919820160801d60020b916fdb2df09e81959a81455e260799a0632f0160801d60020b92600091848414600014614b2c57505050905090565b614b3585613b9a565b16119050613b59575090565b905081607f031b61497c565b6040516324c070df60e11b8152600490fd5b5073fffd8963efd1fc6a506488495d951d5263988d2683106148e8565b60d0546035546001600160a01b0391821690614b96613942565b600091600093614ba683826143dc565b505091614bbe6001600160801b038094169182614100565b90614c2e575b5050505060008051602061505183398151915292614c15604093614c21937f8f50c68aa31577462ee7e15eb3417fa4442a7167ecb21ddba35eb88926d72689868051838152846020820152a1614624565b60d05416612240614db1565b82519182526020820152a1565b9091928094505191602085018481519360409485519663a34123a760e01b885260020b600488015260020b602487015216604485015282846064818a865af1958615614da75787948897614d7c575b509060a484925160020b915160020b9189845195869485936309e3d67b60e31b8552306004860152602485015260448401528960648401528960848401525af1958615614d715780928197614d07575b50505093614cfa614c2194846111a3614c15956000805160206150518339815191529a9760409a16614617565b9093839650819550614bc4565b919650915085813d8111614d6a575b614d208183612dd7565b81010312613fa8575083614cfa614c2194846111a3614c15956000805160206150518339815191529a97614d5a60206111f860409d6143c8565b9a50979a50955050819650614ccd565b503d614d16565b8251903d90823e3d90fd5b849291975060a49550614d9b90833d8511611249576112358183612dd7565b95909597919250614c7d565b83513d89823e3d90fd5b60ce546040516370a0823160e01b815230600482015290602090829060249082906001600160a01b03165afa90811561039257600091614def575090565b906020823d8211614e15575b81614e0860209383612dd7565b81010312613fa857505190565b3d9150614dfb565b60cf546040516370a0823160e01b815230600482015290602090829060249082906001600160a01b03165afa90811561039257600091614def575090565b92919260009284614e6d575050505050565b80614f1f575b15614f06575060cd546001600160a01b0316803b1561416957828091602460405180948193632e1a7d4d60e01b83528960048401525af18015614efb57614ee8575b5081809381925af1614ec5613881565b5015614ed6575b3880808080614666565b604051630b4631ff60e21b8152600490fd5b614ef490929192612da9565b9038614eb5565b6040513d85823e3d90fd5b614f1a9392506001600160a01b0316613762565b614ecc565b5060cd546001600160a01b03828116911614614e73565b92919082614f445750505050565b60cd546001600160a01b0394851691908516821480615026575b15614fd25750508260cd54164790803b1561023d57600090600460405180948193630d0e30db60e41b83525af1801561039257614fc3575b503083821603614fae575b5050505b388080806139f9565b614fbb9260cd5416613762565b388080614fa1565b614fcc90612da9565b38614f96565b929184604095929551946323b872dd60e01b602087015216602485015216604483015260648201526064815260a08101918183106001600160401b038411176105c157615021926040526137a2565b614fa5565b5083471015614f5e56fe4a11f94e20a93c79f6ec743a1954ec4fc2c08429ae2122118bf234b2185c81b88082b0dab6d73a8025e5f15e4fdd54b68197a613e361810d4a2446c634b98ada42a7b7dd785cd69714a189dffb3fd7d7174edc9ece837694ce50f7078f7c31aea164736f6c6343000813000a",
  "libraries": {
    "UniswapInteractionHelper": "0x498f869CDFa59076c11Fed54212bCd30abaBe6D2"
  },
  "devdoc": {
    "kind": "dev",
    "methods": {
      "acceptOwnership()": {
        "details": "The new owner accepts the ownership transfer."
      },
      "owner()": {
        "details": "Returns the address of the current owner."
      },
      "pendingOwner()": {
        "details": "Returns the address of the pending owner."
      },
      "renounceOwnership()": {
        "details": "Leaves the contract without owner. It will not be possible to call `onlyOwner` functions anymore. Can only be called by the current owner. NOTE: Renouncing ownership will leave the contract without an owner, thereby removing any functionality that is only available to the owner."
      },
      "transferOwnership(address)": {
        "details": "Starts the ownership transfer of the contract to a new account. Replaces the pending transfer if there is one. Can only be called by the current owner."
      }
    },
    "version": 1
  },
  "userdoc": {
    "kind": "user",
    "methods": {},
    "version": 1
  },
  "storageLayout": {
    "storage": [
      {
        "astId": 3423,
        "contract": "contracts/MetavisorRegistry.sol:MetavisorRegistry",
        "label": "_owner",
        "offset": 0,
        "slot": "0",
        "type": "t_address"
      },
      {
        "astId": 3536,
        "contract": "contracts/MetavisorRegistry.sol:MetavisorRegistry",
        "label": "_pendingOwner",
        "offset": 0,
        "slot": "1",
        "type": "t_address"
      },
      {
        "astId": 6048,
        "contract": "contracts/MetavisorRegistry.sol:MetavisorRegistry",
        "label": "isOperator",
        "offset": 0,
        "slot": "2",
        "type": "t_mapping(t_address,t_bool)"
      },
      {
        "astId": 6050,
        "contract": "contracts/MetavisorRegistry.sol:MetavisorRegistry",
        "label": "openRescale",
        "offset": 0,
        "slot": "3",
        "type": "t_bool"
      },
      {
        "astId": 6052,
        "contract": "contracts/MetavisorRegistry.sol:MetavisorRegistry",
        "label": "openDeploy",
        "offset": 1,
        "slot": "3",
        "type": "t_bool"
      },
      {
        "astId": 6054,
        "contract": "contracts/MetavisorRegistry.sol:MetavisorRegistry",
        "label": "feeReceiver",
        "offset": 2,
        "slot": "3",
        "type": "t_address"
      },
      {
        "astId": 6056,
        "contract": "contracts/MetavisorRegistry.sol:MetavisorRegistry",
        "label": "feeNumerator",
        "offset": 0,
        "slot": "4",
        "type": "t_uint256"
      },
      {
        "astId": 6058,
        "contract": "contracts/MetavisorRegistry.sol:MetavisorRegistry",
        "label": "swapPercentage",
        "offset": 0,
        "slot": "5",
        "type": "t_uint256"
      },
      {
        "astId": 6067,
        "contract": "contracts/MetavisorRegistry.sol:MetavisorRegistry",
        "label": "deployedVaults",
        "offset": 0,
        "slot": "6",
        "type": "t_mapping(t_address,t_mapping(t_enum(VaultType)7751,t_address))"
      },
      {
        "astId": 6072,
        "contract": "contracts/MetavisorRegistry.sol:MetavisorRegistry",
        "label": "vaultSpec",
        "offset": 0,
        "slot": "7",
        "type": "t_mapping(t_address,t_struct(VaultSpec)7760_storage)"
      },
      {
        "astId": 6075,
        "contract": "contracts/MetavisorRegistry.sol:MetavisorRegistry",
        "label": "allVaults",
        "offset": 0,
        "slot": "8",
        "type": "t_array(t_address)dyn_storage"
      }
    ],
    "types": {
      "t_address": {
        "encoding": "inplace",
        "label": "address",
        "numberOfBytes": "20"
      },
      "t_array(t_address)dyn_storage": {
        "base": "t_address",
        "encoding": "dynamic_array",
        "label": "address[]",
        "numberOfBytes": "32"
      },
      "t_bool": {
        "encoding": "inplace",
        "label": "bool",
        "numberOfBytes": "1"
      },
      "t_enum(VaultType)7751": {
        "encoding": "inplace",
        "label": "enum VaultType",
        "numberOfBytes": "1"
      },
      "t_int24": {
        "encoding": "inplace",
        "label": "int24",
        "numberOfBytes": "3"
      },
      "t_mapping(t_address,t_bool)": {
        "encoding": "mapping",
        "key": "t_address",
        "label": "mapping(address => bool)",
        "numberOfBytes": "32",
        "value": "t_bool"
      },
      "t_mapping(t_address,t_mapping(t_enum(VaultType)7751,t_address))": {
        "encoding": "mapping",
        "key": "t_address",
        "label": "mapping(address => mapping(enum VaultType => address))",
        "numberOfBytes": "32",
        "value": "t_mapping(t_enum(VaultType)7751,t_address)"
      },
      "t_mapping(t_address,t_struct(VaultSpec)7760_storage)": {
        "encoding": "mapping",
        "key": "t_address",
        "label": "mapping(address => struct VaultSpec)",
        "numberOfBytes": "32",
        "value": "t_struct(VaultSpec)7760_storage"
      },
      "t_mapping(t_enum(VaultType)7751,t_address)": {
        "encoding": "mapping",
        "key": "t_enum(VaultType)7751",
        "label": "mapping(enum VaultType => address)",
        "numberOfBytes": "32",
        "value": "t_address"
      },
      "t_struct(VaultSpec)7760_storage": {
        "encoding": "inplace",
        "label": "struct VaultSpec",
        "members": [
          {
            "astId": 7753,
            "contract": "contracts/MetavisorRegistry.sol:MetavisorRegistry",
            "label": "tickSpread",
            "offset": 0,
            "slot": "0",
            "type": "t_int24"
          },
          {
            "astId": 7755,
            "contract": "contracts/MetavisorRegistry.sol:MetavisorRegistry",
            "label": "tickOpen",
            "offset": 3,
            "slot": "0",
            "type": "t_int24"
          },
          {
            "astId": 7757,
            "contract": "contracts/MetavisorRegistry.sol:MetavisorRegistry",
            "label": "twapInterval",
            "offset": 6,
            "slot": "0",
            "type": "t_uint32"
          },
          {
            "astId": 7759,
            "contract": "contracts/MetavisorRegistry.sol:MetavisorRegistry",
            "label": "priceThreshold",
            "offset": 0,
            "slot": "1",
            "type": "t_uint256"
          }
        ],
        "numberOfBytes": "64"
      },
      "t_uint256": {
        "encoding": "inplace",
        "label": "uint256",
        "numberOfBytes": "32"
      },
      "t_uint32": {
        "encoding": "inplace",
        "label": "uint32",
        "numberOfBytes": "4"
      }
    }
  }
}